:1000000046C2000065C2000063C2000061C2000079
:100010005FC200005DC200005BC2000059C2000068
:1000200057C2000055C2000053C2000051C2000078
:10003000A8C500004DC200004BC2000049C200002C
:1000400047C2000045C2000043C2000041C2000098
:100050003FC200003DC200003BC2000039C20000A8
:1000600037C200000C941B100C946D1031C20000BC
:100070002FC200002DC200002BC2000029C20000C8
:1000800027C2000025C2000023C2000021C20000D8
:100090000C94B1100C9403111BC200000C94C012FC
:1000A00017C2000015C2000013C2000011C20000F8
:1000B0000FC200000DC200000BC2000009C2000008
:1000C00007C2000005C2000003C200000C944711E3
:1000D0000C949911FDC100000C94DD110C942F12A9
:1000E000F7C10000BE01BE01BE01F8010002160208
:1000F000BE01BE01F8010002E21252135213521364
:100100005213521352135213E21252135213521338
:100110005213521352135213E41252135213521326
:1001200052135213521352135213521352135213A7
:100130005213521352135213E41252135213521306
:100140005213521352135213521352135213521387
:1001500052135213521352134E135213521352137B
:1001600052135213521352131913521352135213A0
:100170005213521352135213521352135213521357
:1001800052135213521352130D135213521352138C
:10019000521352135213521331130EE612E10F2E63
:1001A000FEE9EF2EF2E1FF2EF02D80916D128823F3
:1001B00011F10FB6F8940F92D8011796ED91FC91BA
:1001C0001897C085D185CE01029643D380916112E4
:1001D00081508093611280916D12815080936D12D5
:1001E0000F900FBE8B8D9C8D92D2CE0190D28091BC
:1001F0006D128111DECFF7018081823008F0FED3CD
:100200000E94570FD2CFCF93DF93CDB7DEB7609761
:100210000FB6F894DEBF0FBECDBFCE0101969A8710
:100220008987812C912CA12CB12C69847A84E0914E
:10023000D612F091D7128081882309F40EC107806D
:10024000F085E02D20803180428053800E94B70AE3
:10025000CE0101960E94C10E6B877C878D879E8799
:100260008981811164C08B859C85AD85BE85821591
:100270009305A405B50508F444C00E949D0BE091C8
:10028000D612F091D7120780F085E02DA085B185B8
:10029000B88BAF87CD010296DCD2EF85F8898789CC
:1002A00082FF21C04685578560897189420D531DA3
:1002B000641D751D720161010B851C852D853E85B0
:1002C000CF010E94D50D882399F0C82CD92CEA2C97
:1002D000FB2C00E010E0A201910160E08F8598897D
:1002E0000E94660E05C08E7FAF85B88957968C93A5
:1002F000AF85B8895496ED91FC915597CD0119952C
:100300009EC020E0B201A1018B859C85AD85BE8594
:10031000481B590B6A0B7B0B8091D2129091D31220
:10032000D7D60E949D0B81118AC068D388C00E94D5
:100330009D0B85C0898188230CF481C04E805F802D
:10034000D2011C968D919C911D97892B19F0C201A9
:1003500002967FD2CE0108960E94C10E8B019C01AD
:10036000E9810E2E000CFF0BEA30F10508F067C0A2
:100370008827EE58FF4F8F4F0C942415F201878980
:100380008160878BCA80DB80EC80FD804685578545
:10039000608971894C0D5D1D6E1D7F1DC2010E941B
:1003A000D50D882309F44BC0D2015496ED91FC91F0
:1003B0005597C2011995F201878982FF40C04A8191
:1003C0005B816C817D8186859785A089B1899A0141
:1003D000AB01280F391F4A1F5B1FC82CD92CEA2CF0
:1003E000FB2C00E010E060E0C2010E94660E27C016
:1003F000D20157968C9157978E7F57968C931FC03A
:10040000F20187898160878B4A815B816C817D8164
:1004100046875787608B718B400F511F621F731F78
:1004200068017901C2010E94D50D09C0F2018789D6
:1004300081FD03C0C2016BD102C08E7F878B282D46
:10044000392D4A2D5B2D662D772D8091D2129091FA
:10045000D312A9D581116ECFEACE0E94B70ACE0180
:1004600001960E94C10E6B877C878D879E8789814C
:1004700081115DCFE091D412F091D512808121E0FD
:10048000811120E0282C392C4A2C5B2C3BCF1124E5
:100490001FBECFEFD1E2DEBFCDBF00E00CBF12E048
:1004A000A0E0B2E0EEE9F2E300E00BBF02C007908B
:1004B0000D92A43AB107D9F723E1A4EAB2E001C052
:1004C0001D92A331B207E1F70E94A70F0C944D19BA
:1004D00097CD0C9412100895E7E0F1E080818F60D1
:1004E00080830895E8E0F1E09081907F908390818F
:1004F0008F70982B90830895E8E0F1E08081807FF1
:1005000080830895CF93DF93DC01ECEAF2E001C031
:10051000F901208131812A173B07D0F38281938131
:10052000AF01480F591FA417B50749F412964D9112
:100530005C911397840F951F93838283DF0112963A
:100540008D919C911397ED01C80FD91F2C173D0772
:10055000D9F42091AA023091AB02C217D30781F0DF
:100560002A813B81820F931F13969C938E9312973F
:10057000C081D1818881998111969C938E9307C007
:100580001196DC93CE9303C011963C932E93AE1735
:10059000BF0711F0B183A083DF91CF910895CF926F
:1005A000DF92EF92FF920F931F93CF93DF93EC01B3
:1005B000DED78091AA029091AB02892B41F5ECEA3B
:1005C000F2E0A0EBB2E0B183A08313821282ECE4EC
:1005D000F2E1F093AB02E093AA021382128211823D
:1005E00010828CE99FE013969C938E931297ED9363
:1005F000FC939093A7028093A6029093A902809304
:10060000A80280E090E89093A5028093A402E09075
:10061000A402F090A502C7018C239D23892B09F029
:1006200066C0209709F466C0AE014C5F5F4F09F4C5
:100630005EC00091A8021091A9020417150708F4E2
:1006400056C0C091AC02D091AD02ECEAF2E002C01B
:10065000FE01E9012A813B812417350728F428810E
:10066000398121153105A1F78091AA029091AB0241
:10067000C817D907E1F1C080D18084E0C80ED11C31
:1006800088819981918380832A813B81241B350B4A
:100690002930310548F0CE01840F951FFC013383CA
:1006A00022835B834A832EDF8A819B81081B190B7F
:1006B0001093A9020093A8022091A6023091A702EC
:1006C0000217130720F41093A7020093A602E82A4A
:1006D000F92AFB82EA82198218820E949D0BC114BA
:1006E000D10459F40E94580FC12CD12C06C00E948D
:1006F0009D0BF8CF0E949D0BF5CFC601DF91CF91E6
:100700001F910F91FF90EF90DF90CF900895CF93BE
:10071000DF93009741F1FC013497228133814091AE
:10072000A4025091A502B90164237523672BD9F067
:1007300060817181672BB9F4EF01409550952423B6
:1007400035233383228313D72091A8023091A90245
:100750008A819B81820F931F9093A9028093A802A4
:10076000CE01D0DEEAD7DF91CF910895FC01039648
:10077000928381834FEF5FEFBA0143835483658394
:100780007683908787839287818710820895FC0102
:10079000138612860895CF93DF939C01FB01DC0141
:1007A0001196CD91DC911297D583C4838E819F8160
:1007B000978386838E819F81DC0115967C936E934F
:1007C00014977F836E8333872287F90180818F5F3F
:1007D0008083DF91CF9108950F931F93CF93DF9381
:1007E000EB01088119812A813B810F3F4FEF1407EC
:1007F0002407340721F4FC01A185B28511C0DC0176
:10080000139601C0DF011496ED91FC91159740817C
:10081000518162817381041715072607370790F706
:100820001496ED91FC911597FD83EC83D783C683D5
:10083000BF83AE831596DC93CE9314979B878A87EC
:10084000FC0120812F5F2083DF91CF911F910F91B9
:100850000895CF93DF93FC01A285B385C481D58130
:10086000868197819F838E83C681D781848195817C
:100870009D838C8311968D919C911297E817F907AF
:1008800031F48681978112969C938E9311971386EB
:1008900012868C9181508C938C91DF91CF91089529
:1008A00031E1FC013083319722E220833197A3E3C9
:1008B000A08331976083319770833197108231978D
:1008C0001082319760E860833197108231971082EF
:1008D00031971082319762E06083319763E06083E3
:1008E000319764E06083319765E06083319766E01B
:1008F0006083319767E06083319768E06083319768
:1009000069E06083319760E160833197308331978C
:1009100032E13083319733E13083319734E13083F2
:10092000319735E13083319736E13083319737E1C4
:100930003083319738E13083319739E13083319713
:1009400030E23083319731E2308331972083319721
:1009500023E220833197408331975083319726E2F9
:100960002083319727E22083319728E22083319733
:1009700029E22083319720E32083319721E32083EC
:1009800089970895A89590EC88E10FB6F894A895FA
:10099000809360000FBE90936000A091CA12B09146
:1009A000CB12CD91CDBFDD91DEBFFF91EF91DF91F5
:1009B000CF91BF91AF919F918F917F916F915F91F7
:1009C0004F913F912F911F910F91FF90EF90DF90EA
:1009D000CF90BF90AF909F908F907F906F905F90DF
:1009E0004F903F902F901F900F900CBE0F900BBE1A
:1009F0000F900FBE0F90089581E008950F920FB6EB
:100A0000F8940F920BB60F920CB60F921F9211240E
:100A10002F923F924F925F926F927F928F929F920E
:100A2000AF92BF92CF92DF92EF92FF920F931F93FC
:100A30002F933F934F935F936F937F938F939F93E6
:100A4000AF93BF93CF93DF93EF93FF93A091CA121D
:100A5000B091CB120DB60D920EB60D92F6D6A091B6
:100A6000CA12B091CB12CD91CDBFDD91DEBFFF9107
:100A7000EF91DF91CF91BF91AF919F918F917F9136
:100A80006F915F914F913F912F911F910F91FF9027
:100A9000EF90DF90CF90BF90AF909F908F907F901E
:100AA0006F905F904F903F902F901F900F900CBED3
:100AB0000F900BBE0F900FBE0F9008950F920FB6C0
:100AC000F8940F920BB60F920CB60F921F9211244E
:100AD0002F923F924F925F926F927F928F929F924E
:100AE000AF92BF92CF92DF92EF92FF920F931F933C
:100AF0002F933F934F935F936F937F938F939F9326
:100B0000AF93BF93CF93DF93EF93FF93A091CA125C
:100B1000B091CB120DB60D920EB60D9213BE3BD511
:100B2000811193D6A091CA12B091CB12CD91CDBFB5
:100B3000DD91DEBFFF91EF91DF91CF91BF91AF913A
:100B40009F918F917F916F915F914F913F912F91E5
:100B50001F910F91FF90EF90DF90CF90BF90AF90DB
:100B60009F908F907F906F905F904F903F902F90CD
:100B70001F900F900CBE0F900BBE0F900FBE0F90EA
:100B800008959CDF18950FB6F8940F92FC01968D8E
:100B90000F900FBE81E0911180E008950F931F9395
:100BA000CF93DF93EC01042F1E8D48A141110BC0A0
:100BB00088819981892B09F041C08C819D81B5D7AD
:100BC0001D821C8242C0011117C050E08A819B81A6
:100BD0000E944D1628A18A819B81820F911D9B83C3
:100BE0008A832C813D818217930750F188819981F6
:100BF0009B838A8380E029C050E08E819F810E9480
:100C00004D1688A190E09195819591092E813F81A3
:100C1000280F391F3F832E834881598124173507B8
:100C200030F42C813D81820F931F9F838E8302308D
:100C300049F4112349F0115080E007C080E005C05D
:100C400080E003C080E001C080E01F5F1E8FDF9165
:100C5000CF911F910F910895FC0140A14423A9F069
:100C600050E026813781240F351F37832683848106
:100C700095812817390720F0808191819783868399
:100C8000CB01668177810C944D160895EF92FF9207
:100C90000F931F93CF938C010FB6F8940F92FC0122
:100CA000C2A11C169CF48389811106C00FC0F801F3
:100CB0008389811105C00AC07801F3E1EF0EF11CB0
:100CC000C70179D681111FD7C15089F78FEFF8017D
:100CD00082A30F900FBE0FB6F8940F92C1A11C16FD
:100CE0009CF48085811106C00FC0F80180858111B8
:100CF00005C00AC07801F8E0EF0EF11CC7015BD611
:100D0000811101D7C15089F78FEFF80181A30F90AE
:100D10000FBECF911F910F91FF90EF900895CF9349
:100D2000DF93EC010FB6F8940F92E881F9818F8D73
:100D300028A190E030E0829FA001839F500D929FF8
:100D4000500D11244E0F5F1F5D834C831E8EFB835D
:100D5000EA830197829FA001839F500D929F500DBF
:100D60001124CF01840F951F9F838E838FEF89A35A
:100D70008AA361110AC08885882369F0CE0108968C
:100D80001AD6882341F03ADE06C0CE010896EEDC82
:100D9000CE014396EBDC0F900FBE81E0DF91CF9147
:100DA0000895FF920F931F93CF93DF93082F162F71
:100DB000F42E6623B9F0869FC00111248596EFDBDF
:100DC000EC01009741F414C00F8F18A361E0CE012D
:100DD000A6DFFCA20DC0859699838883F5CFD983C1
:100DE000C883F2CF85E290E0DADBEC01892BB9F71A
:100DF000CE01DF91CF911F910F91FF9008959F92A7
:100E0000AF92BF92CF92DF92EF92FF920F931F9318
:100E1000CF93DF93CDB7DEB729970FB6F894DEBF37
:100E20000FBECDBF7C015B012E833F83488759876E
:100E300010E0992493946C0188E0C80ED11C0FB681
:100E4000F8940F92F701968D878D981710F0023065
:100E5000A9F4402FB501C701A1DEF70193899923B9
:100E600039F0C7014396A7D5882321F0C7DD02C01A
:100E70008111C4DD0F900FBE81E04BC08E819F8138
:100E8000A885B985892B8A2B8B2B21F40F900FBE57
:100E900080E03FC0111104C0CE010196CED5192DBE
:100EA0000F900FBE64D30FB6F8940F92F70181A193
:100EB0008F3F09F411A2F70182A18F3F09F412A21A
:100EC0000F900FBEBE016A5F7F4FCE010196C6D55F
:100ED00081111BC00FB6F8940F92F701968D878D84
:100EE0000F900FBE98130DC04E815F816885798584
:100EF000C6012AD5C701CADE20D48111A0CF7EDD6C
:100F00009ECFC701C3DE19D49ACFC701BFDE15D467
:100F100080E029960FB6F894DEBF0FBECDBFDF91FB
:100F2000CF911F910F91FF90EF90DF90CF90BF90E6
:100F3000AF909F900895EF92FF920F931F93CF93DE
:100F4000DF938A01FC01568D378D531710F0223044
:100F5000E1F4422F7801EC011AA120DE1F3F79F461
:100F60008B898823A1F0CE01439625D5882389F06B
:100F7000E114F10481F081E0F70180830DC0FF24CA
:100F8000F394F10EFAA281E007C080E005C081E091
:100F900003C081E001C081E0DF91CF911F910F91EB
:100FA000FF90EF9008959F92AF92BF92CF92DF9201
:100FB000EF92FF920F931F93CF93DF93CDB7DEB7DE
:100FC00029970FB6F894DEBF0FBECDBF8C015B0131
:100FD0002E833F8348875987E12C992493946C0191
:100FE00083E1C80ED11C0FB6F8940F92F801F68C6D
:100FF000FF2091F0B501C8012FDEFA94F801F68EBA
:101000008085882329F0C8010896D5D48111F6DCA3
:101010000F900FBE81E04AC08E819F81A885B9855F
:10102000892B8A2B8B2B21F40F900FBE80E03EC0C2
:10103000E11004C0CE01019600D5E92C0F900FBE3F
:1010400096D20FB6F8940F92F80181A18F3F09F460
:1010500011A2F80182A18F3F09F412A20F900FBED6
:10106000BE016A5F7F4FCE010196F8D4811115C091
:10107000C80189DD882369F04E815F8168857985A3
:10108000C60162D4C80102DE58D38111ACCFB6DCF0
:10109000AACFC801FBDD51D3A6CFC801F7DD4DD3E0
:1010A000C80171DD882309F49ECF80E029960FB630
:1010B000F894DEBF0FBECDBFDF91CF911F910F918E
:1010C000FF90EF90DF90CF90BF90AF909F900895EA
:1010D000CF93DF93EC010FB6F8940F9289A18F3F65
:1010E00009F419A28AA18F3F09F41AA20F900FBE2A
:1010F0008E8D811103C0CE0143963DD4CE01C6DD55
:10110000DF91CF910895E0918612F091871280814E
:1011100081110CC08FEF9FEFDC01809353129093ED
:101120005412A0935512B09356120895E09186126E
:10113000F09187120780F085E02D0084F185E02D85
:1011400082819381A481B58180935312909354122C
:10115000A0935512B093561208958F929F92AF921A
:10116000BF92CF92DF92EF92FF92CF936B017C01FF
:10117000C42F80905D1290905E12A0905F12B0908C
:1011800060128091CA129091CB12029662DB8FEFAF
:10119000C816D806E806F80661F4CC2351F0609131
:1011A000CA127091CB126E5F7F4F82E692E1F3DA42
:1011B0003DC0C80CD91CEA1CFB1CE091CA12F0917E
:1011C000CB12C282D382E482F582C814D904EA0425
:1011D000FB0460F46091CA127091CB12809184126A
:1011E000909185126E5F7F4FF7DA20C06091CA122E
:1011F0007091CB1280918612909187126E5F7F4F13
:10120000EBDA8091531290915412A0915512B09143
:101210005612C816D906EA06FB0640F4C0925312CD
:10122000D0925412E0925512F0925612CF91FF9044
:10123000EF90DF90CF90BF90AF909F908F900895E8
:101240004F925F926F927F928F929F92AF92BF92D6
:10125000CF92DF92EF92FF920F93CF93DF934C01E7
:101260006B015A012901CA019AD93C01892B09F461
:10127000E4C080E390E093D9EC01892B99F07C8E57
:101280006B8EA50165EA70E0C3010E94561621E04D
:10129000A21AB1088B8D9C8DA80EB91EC114D10461
:1012A00021F41FC0C30133DAC8C0D6018C918D8FE1
:1012B0008C918823A1F0AE01425E5F4FF60131961A
:1012C000B8E0CB0ED11CCF012191DA012D93AD01F5
:1012D000DC018C91882319F0EC15FD05A1F71CA207
:1012E00001C01D8E043008F003E00A8F0FA318A67A
:1012F0006E01B2E0CB0ED11CC60149DACE010E96CA
:1013000046DADB87CA8784E090E0A0E0B0E0801B8B
:101310009109A109B1098E879F87A88BB98BDF8BB3
:10132000CE8B1AA619A61BA61CA61DA61EA61FA616
:10133000A201B401C501B4DA99838883E114F104F0
:1013400019F0F701D183C0830FB6F8940F92809102
:1013500061128F5F809361128091CA129091CB12BB
:10136000892B89F5D093CB12C093CA128091611258
:10137000813009F038C08EE992E1F8D989EA92E12A
:10138000F5D984EB92E1F2D98FEB92E1EFD983E9C1
:1013900092E1ECD988E892E1E9D989E792E1E6D9CE
:1013A0008EE692E1E3D982E692E1E0D983E992E127
:1013B000909387128093861288E892E19093851229
:1013C0008093841210C080915B1281110CC0E09157
:1013D000CA12F091CB12928D8A8D891720F0D0938A
:1013E000CB12C093CA12809157128F5F809357120D
:1013F0008DA38A8D90915C12981710F480935C12E3
:10140000FBE08F9FC0011124B60182569D4EC3D9C7
:101410000F900FBE80915B12882359F0E091CA12A1
:10142000F091CB12928D8A8D981728F4E7DA81E03B
:1014300005C081E003C081E001C08FEFDF91CF9153
:101440000F91FF90EF90DF90CF90BF90AF909F9063
:101450008F907F906F905F904F9008950F931F93A0
:10146000CF93DF93EC010FB6F8940F92892B21F400
:10147000C091CA12D091CB128E010E5F1F4FC801CE
:10148000E8D9888D998D892B19F0CE010E96E1D976
:10149000809157128F5F809357128091CA1290915A
:1014A000CB12C817D90751F4B8018EE692E173D96F
:1014B00080916D128F5F80936D120BC080916112CD
:1014C0008150809361128B8D9C8D21D9CE011FD9C3
:1014D0001ADE0F900FBE80915B12882341F080913D
:1014E000CA129091CB12C817D90709F487DADF9195
:1014F000CF911F910F910895EF92FF920F930F2EAE
:10150000F1E5EF2EF2E1FF2EF02D00E020E030E0DB
:1015100040EC50E06BE072E08DEC90E091DE8130C9
:1015200011F5B4D38130F9F4F8948FEF9FEFDC011B
:101530008093531290935412A0935512B093561265
:1015400081E080935B1210925D1210925E121092F5
:101550005F1210926012E091CA12F091CB1281A535
:101560000E9472020FDA0F91FF90EF900895809120
:1015700050128F5F8093501208950FB6F8940F9217
:1015800060915D1270915E1280915F129091601275
:101590000F900FBE08959F92AF92BF92CF92DF92AD
:1015A000EF92FF920F931F93CF93DF93809150128E
:1015B0008111AAC0C0905D12D0905E12E0905F12BF
:1015C000F09060128FEFC81AD80AE80AF80AC092A1
:1015D0005D12D0925E12E0925F12F0926012C1141E
:1015E000D104E104F104B1F4809186129091871244
:1015F00020918412309185123093871220938612A5
:101600009093851280938412809158128F5F8093FB
:10161000581279DD8091531290915412A091551275
:10162000B0915612C816D906EA06FB0610F4B12C82
:101630005AC0B12C0F2EFBE0AF2EF02D99249394BD
:10164000E0918612F0918712808181110CC08FEF9A
:101650009FEFDC018093531290935412A093551284
:10166000B093561240C0E0918612F0918712078025
:10167000F085E02DC085D1858A819B81AC81BD81BB
:10168000C816D906EA06FB0648F4809353129093D5
:101690005412A0935512B093561225C08E010E5FBE
:1016A0001F4FC801D6D8888D998D892B19F0CE018E
:1016B0000E96CFD88A8D90915C12981710F4809373
:1016C0005C12A89EC0011124B80182569D4E63D8B9
:1016D000E091CA12F091CB129A8D828D981708F47E
:1016E000AFCFB92CADCFE091CA12F091CB12E28D01
:1016F0008BE0E89FF0011124E256FD4E808182309C
:1017000048F0BB24B39406C080915A128F5F809337
:101710005A12B12C80915912882311F0BB24B39432
:101720008B2DDF91CF911F910F91FF90EF90DF9064
:10173000CF90BF90AF909F900895CF92DF92EF929D
:10174000FF920F931F93CF93DF930FB6F8940F92EE
:1017500080915012815080935012809150128111CB
:1017600057C08091611281112AC055C0D7011796C8
:10177000ED91FC911897C085D185CE010E9669D860
:101780008E010E5F1F4FC80164D88A8D90915C1244
:10179000981710F480935C12D89EC0011124B801F0
:1017A00082569D4E0E94CB03E091CA12F091CB125B
:1017B0009A8D828D981788F0C09259120EC0C0E0A1
:1017C000D0E00F2EF9E7EF2EF2E1FF2EF02D0F2ED5
:1017D000FBE0DF2EF02DCC24C394F7018081811132
:1017E000C5CFCD2B09F08FDCC0915A12CC2349F024
:1017F000D1E0D1DE8111D0935912C150D1F71092AE
:101800005A1280915912882329F0F8D881E003C038
:1018100080E001C080E00F900FBEDF91CF911F915B
:101820000F91FF90EF90DF90CF900895009721F4F3
:101830008091CA129091CB120FB6F8940F92FC01CE
:1018400072A761A70F900FBE089580915012882350
:1018500021F081E080935912089510925912E0917D
:10186000CA12F091CB1281A50E947C02A091CA12EB
:10187000B091CB12E091CA12F091CB122D913C9114
:10188000838D948D8217930758F06091CA127091DE
:10189000CB128091CA129091CB12635E7F4F15D309
:1018A00080915C12282F30E09BE0899FF001112489
:1018B000E256FD4E908191110EC04BE08150282FD1
:1018C00030E0429FF001439FF00D1124E256FD4E9F
:1018D0009081992399F39BE0929FA001939F500DD3
:1018E0001124DA01A256BD4E1196ED91FC9112978A
:1018F0000480F581E02D1296FC93EE9311974F55DD
:101900005D4EE417F50729F444815581FD015283AA
:1019100041839BE0929FF001939FF00D1124E256CA
:10192000FD4E0180F281E02D208531853093CB1270
:101930002093CA1280935C12E091CA12F091CB12EC
:1019400081A50C9472020895CF92DF92EF92FF92DC
:101950006A017B016091CA127091CB12625F7F4F66
:101960000E94EC0341E0C701B601F7DBFF90EF9066
:10197000DF90CF900895CF92DF92EF92FF92CF93B6
:101980006A017B01C22F6091CA127091CB12625F13
:101990007F4F0E94CB03CC2321F0CC24CA94DC2CB3
:1019A00076014C2FC701B601D8DBCF91FF90EF90A5
:1019B000DF90CF9008950F931F93CF93DF93DC01B7
:1019C0001796ED91FC911897C085D1858E01025F25
:1019D0001F4FC8010E94290480915012811116C026
:1019E0000C501109C8010E9429048A8D90915C1243
:1019F000981710F480935C12BBE08B9FC0011124F8
:101A0000B80182569D4E0E94CB0305C0B80189E7FC
:101A100092E10E94CB03E091CA12F091CB129A8D11
:101A2000828D891720F481E08093591201C080E0F3
:101A3000DF91CF911F910F91089520915812FC01D1
:101A4000208340915D1250915E1260915F127091FF
:101A5000601241835283638374830895CF92DF922F
:101A6000EF92FF920F931F93CF93DF93FB010FB67B
:101A7000F8940F9240915D1250915E1260915F1246
:101A80007091601200811181228133810F3FAFEF8D
:101A90001A072A073A0749F1EC01C980DA80EB807E
:101AA000FC80A0915812B881BA1729F04C155D0539
:101AB0006E057F05E0F44C195D096E097F0940173A
:101AC00051076207730758F4041B150B260B370BDD
:101AD0000083118322833383B0DF80E009C010824A
:101AE00011821282138281E003C080E001C081E094
:101AF0000F900FBEDF91CF911F910F91FF90EF904C
:101B0000DF90CF90089581E08093591208958091DD
:101B10005B12882331F080915012882321F080E0FD
:101B2000089581E0089582E008950F931F93CF9365
:101B3000DF93FC01892B79F180A5815080A7228D4C
:101B400097A1291751F181112AC0EF018F010E5F72
:101B50001F4FC8010E9429048FA18A8F44E050E0E2
:101B600060E070E0481B5109610971094E875F8789
:101B7000688B798B90915C12981710F480935C12AB
:101B80002BE0829FC0011124B80182569D4E0E9415
:101B9000CB0381E005C080E003C080E001C080E0AD
:101BA000DF91CF911F910F910895CF92DF92EF9225
:101BB000FF920F931F93FC014283538364837583C9
:101BC000938782870417150726073707C0F00C197B
:101BD0001D092E093F0986859785A089B1890817B7
:101BE00019072A073B0700F5BF016E5F7F4F809101
:101BF000D4129091D5120E94EC0380E018C00C150D
:101C00001D052E053F0528F44C155D056E057F0565
:101C100068F4BF016E5F7F4F8091D6129091D7120A
:101C20000E94EC0380E003C081E001C081E01F91CD
:101C30000F91FF90EF90DF90CF9008950FB6F8943A
:101C40000F928091D2129091D312892BE1F483EEFE
:101C500092E10E94B60388ED92E10E94B60383EE02
:101C600092E19093D7128093D61288ED92E19093EF
:101C7000D5128093D41240E067E08AE092D8909326
:101C8000D3128093D2120F900FBE0895EF92FF925D
:101C90000F93D4DF8091D2129091D312892B89F0C7
:101CA0000F2EF0EDEF2EF2E1FF2EF02D03E020E0FD
:101CB00030E045E550E060E172E083E091E0C0DAB9
:101CC00001C080E00F91FF90EF9008958F929F9256
:101CD000AF92BF92CF92DF92EF92FF920F931F933A
:101CE000CF93DF93CDB7DEB727970FB6F894DEBF5B
:101CF0000FBECDBFE091D212F091D312309769F1AF
:101D000069832A833B834C835D839F838E83663004
:101D1000E4F4FDDE823061F400E0A7019601BE012B
:101D20006F5F7F4F8091D2129091D31268D816C006
:101D300000E020E030E0A901BE016F5F7F4F80919D
:101D4000D2129091D3125BD809C020E0A801BE0145
:101D50006F5F7F4FCF01EFD801C080E027960FB6AD
:101D6000F894DEBF0FBECDBFDF91CF911F910F91D1
:101D7000FF90EF90DF90CF90BF90AF909F908F90AB
:101D800008952F923F924F925F926F927F928F921F
:101D90009F92AF92BF92CF92DF92EF92FF920F93FA
:101DA0001F93CF93DF931C01E8DB2B013C01809153
:101DB000CC129091CD12A091CE12B091CF124816B4
:101DC00059066A067B0608F053C03BC00780F085C1
:101DD000E02D80809180A280B380C085D1858E0166
:101DE0000E5F1F4FC8010E942904EC89FD89CE01B6
:101DF00019958F8982FF25C08E859F85A889B9890D
:101E0000880D991DAA1DBB1D88169906AA06BB063A
:101E100070F48A839B83AC83BD83DB87CA87B80158
:101E20008091D6129091D7120E94EC030AC0C12C67
:101E3000D12C760100E010E0A501940160E0CE0114
:101E400045DFE091D612F091D71280818111BECF8B
:101E50008091D4129091D5129093D7128093D6127C
:101E6000F093D512E093D41281E0F101808302C097
:101E7000F10110824092CC125092CD126092CE129B
:101E80007092CF12C301B201DF91CF911F910F91D8
:101E9000FF90EF90DF90CF90BF90AF909F908F908A
:101EA0007F906F905F904F903F902F90089508958E
:101EB000279A2F9A2FEF80E792E0215080409040A0
:101EC000E1F700C000001F9AF5CF279A2F9A2FEF55
:101ED00087EA91E6215080409040E1F700C0000081
:101EE0001F9AF5CFEF92FF920F93CF9361E070E0CE
:101EF00080E090E09BDC0E946C026BD0C82F8111C7
:101F000003C088E192E0ECD61F92CF9381E492E087
:101F10009F938F93D2D60E9469020F2EFEEEEF2E72
:101F2000F2E1FF2EF02D00E021E030E040EC50E047
:101F30006AE672E085D980E090E090DA0F900F9029
:101F40000F900F90CF910F91FF90EF90089587E73A
:101F500092E0C6D60F2EFEEEEF2EF2E1FF2EF02D10
:101F600000E021E030E040EC50E06BE872E082E716
:101F70009FE066D9C1DAFFCF6530F1F4FA018081C4
:101F80008F7390E0982F88272181822B90930902EC
:101F9000809308028281F0E48F9FC0011124FA012E
:101FA000238126952695822B909307028093060223
:101FB00081E08093F0120895643051F080E090E465
:101FC000909307028093060290930902809308027F
:101FD00008950F931F930CEB1FE020E034E244EFD1
:101FE00050E060E087E27FD29093F2128093F1128A
:101FF00021E0892B09F020E0822F1F910F91089595
:10200000609108027091090280E090E00AD420E01B
:1020100030E048EC52E493D420E038EF4FE756E448
:102020006CC30895EDDF20E030E040E251E487D456
:10203000CCD3CB0108951F920F920FB60F921124AB
:102040000BB60F922F933F934F935F936F937F93B2
:102050008F939F93AF93BF93CF93DF93EF93FF93B0
:10206000A091F312B091F412109711F16091C60093
:102070001496ED91FC911597938182812581981B8F
:1020800092238481981761F0838126952823C0814B
:10209000D181C20FD11D68838F5F9581892383838E
:1020A0001696ED91FC911797309711F0CD01199587
:1020B000FF91EF91DF91CF91BF91AF919F918F9160
:1020C0007F916F915F914F913F912F910F900BBE38
:1020D0000F900FBE0F901F9018951F920F920FB682
:1020E0000F9211240BB60F922F938F939F93AF9360
:1020F000BF93EF93FF93E091F312F091F4123097B6
:10210000B9F00280F381E02D938182819817B1F0BC
:1021100092818581282F26952923A081B181A20F44
:10212000B11D2C919F5F892382832093C6000BC031
:10213000E1ECF0E080818F7D808305C0E1ECF0E090
:1021400080818F7D8083FF91EF91BF91AF919F91AF
:102150008F912F910F900BBE0F900FBE0F901F907D
:1021600018951F920F920FB60F9211240BB60F9273
:102170002F933F934F935F936F937F938F939F938F
:10218000AF93BF93CF93DF93EF93FF93A091F5129B
:10219000B091F612109711F16091CE001496ED9166
:1021A000FC911597938182812581981B92238481CC
:1021B000981761F0838126952823C081D181C20FB1
:1021C000D11D68838F5F9581892383831696ED9156
:1021D000FC911797309711F0CD011995FF91EF9170
:1021E000DF91CF91BF91AF919F918F917F916F912F
:1021F0005F914F913F912F910F900BBE0F900FBEAB
:102200000F901F9018951F920F920FB60F921124E6
:102210000BB60F922F938F939F93AF93BF93EF9330
:10222000FF93E091F512F091F6123097B9F0028029
:10223000F381E02D938182819817B1F0928185819D
:10224000282F26952923A081B181A20FB11D2C91A1
:102250009F5F892382832093CE000BC0E9ECF0E0DE
:1022600080818F7D808305C0E9ECF0E080818F7DE7
:102270008083FF91EF91BF91AF919F918F912F91AB
:102280000F900BBE0F900FBE0F901F9018951F92CE
:102290000F920FB60F9211240BB60F922F933F930C
:1022A0004F935F936F937F938F939F93AF93BF935E
:1022B000CF93DF93EF93FF93A091F712B091F812B1
:1022C000109711F16091D6001496ED91FC9115973D
:1022D000938182812581981B92238481981761F0D4
:1022E000838126952823C081D181C20FD11D6883A7
:1022F0008F5F9581892383831696ED91FC911797C3
:10230000309711F0CD011995FF91EF91DF91CF91A9
:10231000BF91AF919F918F917F916F915F914F91FD
:102320003F912F910F900BBE0F900FBE0F901F90FB
:1023300018951F920F920FB60F9211240BB60F92A1
:102340002F938F939F93AF93BF93EF93FF93E0915E
:10235000F712F091F8123097B9F00280F381E02D76
:10236000938182819817B1F092818581282F2695DB
:102370002923A081B181A20FB11D2C919F5F8923D8
:1023800082832093D6000BC0E1EDF0E080818F7D49
:10239000808305C0E1EDF0E080818F7D8083FF9137
:1023A000EF91BF91AF919F918F912F910F900BBEA5
:1023B0000F900FBE0F901F9018951F920F920FB69F
:1023C0000F9211240BB60F922F933F934F935F936D
:1023D0006F937F938F939F93AF93BF93CF93DF932D
:1023E000EF93FF93A091F912B091FA12109711F1A7
:1023F000609136011496ED91FC911597938182813D
:102400002581981B92238481981761F083812695FA
:102410002823C081D181C20FD11D68838F5F958130
:10242000892383831696ED91FC911797309711F0CD
:10243000CD011995FF91EF91DF91CF91BF91AF91B0
:102440009F918F917F916F915F914F913F912F91CC
:102450000F900BBE0F900FBE0F901F9018951F92FC
:102460000F920FB60F9211240BB60F922F938F93EA
:102470009F93AF93BF93EF93FF93E091F912F09185
:10248000FA123097B9F00280F381E02D93818281B6
:102490009817B1F092818581282F26952923A08154
:1024A000B181A20FB11D2C919F5F8923828320935C
:1024B00036010BC0E1E3F1E080818F7D808305C0B0
:1024C000E1E3F1E080818F7D8083FF91EF91BF9107
:1024D000AF919F918F912F910F900BBE0F900FBED8
:1024E0000F901F901895AF92BF92CF92DF92EF920C
:1024F000FF920F931F93CF93DF93A82EB62E6901FF
:102500007A0184E090E0A8D2EC01892B61F1A882E5
:1025100081E0B81212C0C701B60120EA36E841E0F6
:1025200050E070D2DA01C9014097A109B109B6950E
:10253000A79597958795898311C0C701B60120E8B3
:102540003AE146E050E05ED2DA01C9014097A109C4
:10255000B109B695A7959795879589831B830A83BB
:102560008C2F9D2F02C080E090E0DF91CF911F91D2
:102570000F91FF90EF90DF90CF90BF90AF900895B4
:102580001F920F920FB60F9211240BB60F922F933A
:102590003F934F935F936F937F938F939F93AF93EB
:1025A000BF93EF93FF93E091B9008E2F90E0FC0171
:1025B0003897E135F10508F075C08827E458FF4FDA
:1025C0008F4F42C21092FB12E091FB128091FE12DB
:1025D000E81770F481E08E0F8093FB12F0E0E15079
:1025E000FD4E80818093BB0085E88093BC0072C063
:1025F00084E98093BC008091FC129091FD12DC0173
:102600001296ED91FC911397309709F463C020E086
:1026100040E050E064E019955DC0E091FB1281E07C
:102620008E0F8093FB128091BB00F0E0E150FD4ED5
:1026300080838091B900803411F41092FB122091B4
:10264000FB1230E08091FE1290E0019728173907C5
:1026500024F485EC8093BC003DC085E88093BC00E9
:1026600039C08091BB00E091FB12F0E0E150FD4EDB
:10267000808384E98093BC008091FC129091FD12CC
:10268000DC011296ED91FC911397309719F120918E
:10269000FE124FEF52E165E019951CC085EA809368
:1026A000BC0018C08091B90080930A0284E0809336
:1026B000BC008091FC129091FD12DC011296ED910C
:1026C000FC911397309731F020E040E050E06091AA
:1026D0000A021995FF91EF91BF91AF919F918F9150
:1026E0007F916F915F914F913F912F910F900BBE12
:1026F0000F900FBE0F901F9018950CD0E6C0DED043
:1027000040F0D5D030F021F45F3F19F0C7C051112F
:1027100010C1CAC0EBD098F39923C9F35523B1F384
:10272000951B550BBB27AA2762177307840738F040
:102730009F5F5F4F220F331F441FAA1FA9F333D09F
:102740000E2E3AF0E0E830D091505040E695001C53
:10275000CAF729D0FE2F27D0660F771F881FBB1F0F
:10276000261737074807AB07B0E809F0BB0B802DE9
:10277000BF01FF2793585F4F2AF09E3F510568F035
:102780008DC0D7C05F3FECF3983EDCF3869577951C
:102790006795B795F7959F5FC9F7880F911D969537
:1027A000879597F90895E1E0660F771F881FBB1F93
:1027B000621773078407BA0720F0621B730B840B40
:1027C000BA0BEE1F88F7E095089598D088F09F57D0
:1027D00090F0B92F9927B751A0F0D1F0660F771F6D
:1027E000881F991F1AF0BA95C9F712C0B13081F04D
:1027F0009FD0B1E008959CC0672F782F8827B85FDD
:1028000039F0B93FCCF3869577956795B395D9F7AD
:102810003EF490958095709561957F4F8F4F9F4FB7
:102820000895E89409C097FB3EF4909580957095C3
:1028300061957F4F8F4F9F4F9923A9F0F92F96E90C
:10284000BB279395F695879577956795B795F11181
:10285000F8CFFAF4BB0F11F460FF1BC06F5F7F4F1E
:102860008F4F9F4F16C0882311F096E911C0772330
:1028700021F09EE8872F762F05C0662371F096E839
:10288000862F70E060E02AF09A95660F771F881F08
:10289000DAF7880F9695879597F9089597F99F67C6
:1028A00080E870E060E008959FEF80EC08950024D8
:1028B0000A941616170618060906089500240A94A5
:1028C00012161306140605060895092E0394000C2B
:1028D00011F4882352F0BB0F40F4BF2B11F460FFBA
:1028E00004C06F5F7F4F8F4F9F4F089557FD9058E3
:1028F000440F551F59F05F3F71F04795880F97FBC4
:10290000991F61F09F3F79F087950895121613067D
:102910001406551FF2CF4695F1DF08C016161706AC
:102920001806991FF1CF86957105610508940895E1
:10293000E894BB2766277727CB0197F908950BD03A
:10294000C4CFB5DF28F0BADF18F0952309F0A6CF81
:10295000ABCF1124EECFCADFA0F3959FD1F3950F33
:1029600050E0551F629FF001729FBB27F00DB11D13
:10297000639FAA27F00DB11DAA1F649F6627B00DA3
:10298000A11D661F829F2227B00DA11D621F739F8C
:10299000B00DA11D621F839FA00D611D221F749F9A
:1029A0003327A00D611D231F849F600D211D822FE1
:1029B000762F6A2F11249F5750408AF0E1F0882328
:1029C0004AF0EE0FFF1FBB1F661F771F881F915035
:1029D0005040A9F79E3F510570F060CFAACF5F3FEE
:1029E000ECF3983EDCF3869577956795B795F79568
:1029F000E7959F5FC1F7FE2B880F911D96958795F0
:102A000097F90895A1E21A2EAA1BBB1BFD010DC068
:102A1000AA1FBB1FEE1FFF1FA217B307E407F5078E
:102A200020F0A21BB30BE40BF50B661F771F881F6A
:102A3000991F1A9469F760957095809590959B0100
:102A4000AC01BD01CF010895EE0FFF1F881F8BBFA2
:102A50000790F691E02D19940F931F93CF93DF9376
:102A60008230910510F482E090E0E0910B13F09138
:102A70000C1320E030E0A0E0B0E0309719F1408185
:102A800051810281138148175907C8F084179507AF
:102A900069F4109731F012960C93129713961C93C9
:102AA00027C000930B1310930C1322C0211531057E
:102AB00019F04217530718F49A01BD01EF01DF0125
:102AC000F801DBCF21153105F9F0281B390B243033
:102AD000310580F48A819B816115710521F0FB012C
:102AE0009383828304C090930C1380930B13FE0195
:102AF000329644C0FE01E20FF31F8193919322505E
:102B00003109398328833AC02091091330910A137F
:102B1000232B41F4209102023091030230930A13D7
:102B200020930913209100023091010221153105F3
:102B300041F42DB73EB74091040250910502241B89
:102B4000350BE0910913F0910A13E217F307A0F493
:102B50002E1B3F0B2817390778F0AC014E5F5F4FF3
:102B60002417350748F04E0F5F1F50930A13409308
:102B700009138193919302C0E0E0F0E0CF01DF916F
:102B8000CF911F910F910895CF93DF93009709F490
:102B900081C0FC01329713821282A0910B13B09175
:102BA0000C13109781F420813181820F931F2091A3
:102BB000091330910A132817390751F5F0930A13B6
:102BC000E093091367C0ED0120E030E0CE17DF0786
:102BD00040F44A815B819E0141155105F1F0EA0103
:102BE000F5CFD383C28340815181840F951FC817CD
:102BF000D90759F488819981840F951F0296918392
:102C000080838A819B81938382832115310529F4F6
:102C1000F0930C13E0930B133DC0E901FB83EA83AF
:102C200049915991C40FD51FEC17FD0761F48081BC
:102C30009181840F951F0296E9019983888382818F
:102C400093819B838A83E0E0F0E012968D919C91C2
:102C50001397009719F0FD01DC01F7CF8D919C913E
:102C600011979D012E5F3F4F820F931F20910913F3
:102C700030910A132817390769F4309729F4109214
:102C80000C1310920B1302C013821282B0930A131A
:102C9000A0930913DF91CF910895FB01DC0102C0DD
:102CA00001900D9241505040D8F70895DC0101C0C9
:102CB0006D9341505040E0F70895CF93DF93CDB727
:102CC000DEB7AE014A5F5F4FFA0161917191AF01CA
:102CD00080910F139091101333D0DF91CF9108950D
:102CE0000F931F93CF93DF93E0910F13F091101385
:102CF000238121FF1BC08C01D0E0C0E0F80181914D
:102D00008F0160910F1370911013DB011896ED91F4
:102D1000FC911997882331F01995892B79F3DFEF0E
:102D2000CFEFECCF8AE01995892B19F08FEF9FEF49
:102D300002C08D2F9C2FDF91CF911F910F9108958D
:102D40002F923F924F925F926F927F928F929F92BB
:102D5000AF92BF92CF92DF92EF92FF920F931F93A9
:102D6000CF93DF93CDB7DEB72B970FB6F894DEBFC6
:102D70000FBECDBF6C017B018A01FC011782168258
:102D8000838181FFBFC1CE0101963C01F601938191
:102D9000F70193FD859193FF81917F01882309F4C9
:102DA000ADC1853239F493FD859193FF81917F0107
:102DB000853221F4B60190E0D6D1E8CF912C212CB8
:102DC000312CFFE1F315D8F08B3279F038F48032F2
:102DD00079F08332A1F4232D20611DC08D3261F082
:102DE000803369F4232D216016C0832D8260382E34
:102DF000E32DE4603E2E2AC0F32DF8601DC037FCA1
:102E00002DC020ED280F2A3040F08E32B9F436FC68
:102E100075C1232D2064322E19C036FE06C08AE00B
:102E2000989E200D1124922E11C0EAE02E9E200DB6
:102E30001124222EF32DF0623F2E08C08C3621F48F
:102E4000832D8068382E02C0883641F4F70193FD47
:102E5000859193FF81917F018111B3CF982F9F7D41
:102E60009554933028F40C5F1F4F9FE399830DC056
:102E7000833631F0833771F0833509F055C020C0B7
:102E8000F801808189830E5F1F4F88248394912CE1
:102E9000530112C02801F2E04F0E511CF801A0802E
:102EA000B18036FE03C0692D70E002C06FEF7FEF86
:102EB000C5014ED14C018201F32DFF773F2E15C085
:102EC000280122E0420E511CF801A080B18036FE9C
:102ED00003C0692D70E002C06FEF7FEFC5012DD1F7
:102EE0004C01F32DF0683F2E820133FC19C0822D76
:102EF00090E088169906A0F4B60180E290E033D104
:102F00002A94F5CFF50137FC859137FE81915F0159
:102F1000B60190E028D121102A9421E0821A91086C
:102F20008114910479F7E1C0843611F0893639F5BE
:102F3000F80137FE07C060817181828193810C5F47
:102F40001F4F08C060817181072E000C880B990B00
:102F50000E5F1F4FF32DFF763F2E97FF09C0909510
:102F60008095709561957F4F8F4F9F4FF0683F2EF2
:102F70002AE030E0A30133D1882E861844C085377B
:102F800031F4232D2F7EB22E2AE030E025C0932D80
:102F9000997FB92E8F36C1F018F4883579F0AEC01C
:102FA000803719F0883721F0A9C0E92FE061BE2EE3
:102FB000B4FE0DC0FB2DF460BF2E09C034FE0AC064
:102FC000292F2660B22E06C028E030E005C020E19F
:102FD00030E002C020E132E0F801B7FE07C06081B6
:102FE0007181828193810C5F1F4F06C06081718166
:102FF00080E090E00E5F1F4FA301F1D0882E86186D
:10300000FB2DFF773F2E36FE0DC0232D2E7FA22EE7
:10301000891458F434FE0BC032FC09C0832D8E7E17
:10302000A82E05C0B82CA32C03C0B82C01C0B92C05
:10303000A4FE0FC0FE01E80DF11D8081803321F454
:103040009A2D997EA92E09C0A2FE06C0B394B3940E
:1030500004C08A2D867809F0B394A3FC10C0A0FEAA
:1030600006C0B21480F4280C922C9B180DC0B21428
:1030700058F4B60180E290E076D0B394F8CFB21461
:1030800018F42B1802C0982C212CA4FE0FC0B601F6
:1030900080E390E068D0A2FE16C0A1FC03C088E7E0
:1030A00090E002C088E590E0B6010CC08A2D8678D9
:1030B00051F0A1FE02C08BE201C080E2A7FC8DE2CC
:1030C000B60190E050D0891430F4B60180E390E06E
:1030D0004AD09A94F8CF8A94F301E80DF11D8081CB
:1030E000B60190E040D08110F6CF222009F44ECEF8
:1030F000B60180E290E037D02A94F7CFF6018681BE
:10310000978102C08FEF9FEF2B960FB6F894DEBF2A
:103110000FBECDBFDF91CF911F910F91FF90EF9028
:10312000DF90CF90BF90AF909F908F907F906F90E7
:103130005F904F903F902F900895FC010590615053
:1031400070400110D8F7809590958E0F9F1F0895BD
:10315000FC016150704001900110D8F78095909566
:103160008E0F9F1F08950F931F93CF93DF93FB0143
:10317000238121FD03C08FEF9FEF2CC022FF16C0DB
:1031800046815781248135814217530744F4A08139
:10319000B1819D012F5F3F4F318320838C93268126
:1031A00037812F5F3F4F3783268314C08B01EC019B
:1031B000FB010084F185E02D1995892BE1F6D801FA
:1031C00016968D919C911797019617969C938E93C6
:1031D0001697CE01DF91CF911F910F910895FA01BB
:1031E000AA27283051F1203181F1E8946F936E7F46
:1031F0006E5F7F4F8F4F9F4FAF4FB1E03ED0B4E037
:103200003CD0670F781F891F9A1FA11D680F791F77
:103210008A1F911DA11D6A0F711D811D911DA11D88
:1032200020D009F468943F912AE0269F1124301998
:10323000305D3193DEF6CF010895462F4770405D33
:103240004193B3E00FD0C9F7F6CF462F4F70405DE2
:103250004A3318F0495D31FD4052419302D0A9F73D
:10326000EACFB4E0A6959795879577956795BA9537
:10327000C9F700976105710508959B01AC010A2EFD
:1032800006945795479537952795BA95C9F7620FD4
:0E329000731F841F951FA01D0895F894FFCF93
:10329E0000001313200000400040F849444C450044
:1032AE00546D72205376630054656D70657261744F
:1032BE007572652044726976657220537563636515
:1032CE00737366756C6C7920437265617465642ED8
:1032DE000054656D7065726174757265205461730A
:1032EE006B204472697665722052657475726E2019
:1032FE00436F64653A2025640A0067657474696ECD
:10330E00672074656D700050726F6772616D207307
:10331E0074617274696E672E2E2E00496E6974691F
:10332E00616C697A696E672074686520737973744D
:04333E00656D0000B9
:00000001FF
